{
	"src/VotingContract.sol": {
		"Vote": {
			"abi": [
				{
					"inputs": [
						{
							"components": [
								{
									"internalType": "string",
									"name": "voterId",
									"type": "string"
								},
								{
									"internalType": "string",
									"name": "votedTo",
									"type": "string"
								}
							],
							"internalType": "struct Vote.VoterDetail",
							"name": "voterDetail",
							"type": "tuple"
						}
					],
					"name": "giveVote",
					"outputs": [],
					"stateMutability": "nonpayable",
					"type": "function"
				}
			],
			"devdoc": {
				"kind": "dev",
				"methods": {},
				"version": 1
			},
			"evm": {
				"assembly": "    /* \"src/VotingContract.sol\":57:381  contract Vote {... */\n  mstore(0x40, 0x80)\n  callvalue\n  dup1\n  iszero\n  tag_1\n  jumpi\n  0x00\n  dup1\n  revert\ntag_1:\n  pop\n  dataSize(sub_0)\n  dup1\n  dataOffset(sub_0)\n  0x00\n  codecopy\n  0x00\n  return\nstop\n\nsub_0: assembly {\n        /* \"src/VotingContract.sol\":57:381  contract Vote {... */\n      mstore(0x40, 0x80)\n      callvalue\n      dup1\n      iszero\n      tag_1\n      jumpi\n      0x00\n      dup1\n      revert\n    tag_1:\n      pop\n      jumpi(tag_2, lt(calldatasize, 0x04))\n      shr(0xe0, calldataload(0x00))\n      dup1\n      0x3f06d641\n      eq\n      tag_3\n      jumpi\n    tag_2:\n      0x00\n      dup1\n      revert\n        /* \"src/VotingContract.sol\":245:379  function giveVote(VoterDetail memory voterDetail)... */\n    tag_3:\n      tag_4\n      0x04\n      dup1\n      calldatasize\n      sub\n      dup2\n      add\n      swap1\n      tag_5\n      swap2\n      swap1\n      tag_6\n      jump\t// in\n    tag_5:\n      tag_7\n      jump\t// in\n    tag_4:\n      stop\n    tag_7:\n        /* \"src/VotingContract.sol\":361:372  voterDetail */\n      dup1\n        /* \"src/VotingContract.sol\":324:337  votingMachine */\n      0x01\n        /* \"src/VotingContract.sol\":338:349  voterDetail */\n      dup3\n        /* \"src/VotingContract.sol\":338:357  voterDetail.voterId */\n      0x00\n      add\n      mload\n        /* \"src/VotingContract.sol\":324:358  votingMachine[voterDetail.voterId] */\n      mload(0x40)\n      tag_9\n      swap2\n      swap1\n      tag_10\n      jump\t// in\n    tag_9:\n      swap1\n      dup2\n      mstore\n      0x20\n      add\n      mload(0x40)\n      dup1\n      swap2\n      sub\n      swap1\n      keccak256\n        /* \"src/VotingContract.sol\":324:372  votingMachine[voterDetail.voterId] = voterDetail */\n      0x00\n      dup3\n      add\n      mload\n      dup2\n      0x00\n      add\n      swap1\n      dup2\n      tag_11\n      swap2\n      swap1\n      tag_12\n      jump\t// in\n    tag_11:\n      pop\n      0x20\n      dup3\n      add\n      mload\n      dup2\n      0x01\n      add\n      swap1\n      dup2\n      tag_13\n      swap2\n      swap1\n      tag_12\n      jump\t// in\n    tag_13:\n      pop\n      swap1\n      pop\n      pop\n        /* \"src/VotingContract.sol\":245:379  function giveVote(VoterDetail memory voterDetail)... */\n      pop\n      jump\t// out\n        /* \"#utility.yul\":7:82   */\n    tag_14:\n        /* \"#utility.yul\":40:46   */\n      0x00\n        /* \"#utility.yul\":73:75   */\n      0x40\n        /* \"#utility.yul\":67:76   */\n      mload\n        /* \"#utility.yul\":57:76   */\n      swap1\n      pop\n        /* \"#utility.yul\":7:82   */\n      swap1\n      jump\t// out\n        /* \"#utility.yul\":88:205   */\n    tag_15:\n        /* \"#utility.yul\":197:198   */\n      0x00\n        /* \"#utility.yul\":194:195   */\n      dup1\n        /* \"#utility.yul\":187:199   */\n      revert\n        /* \"#utility.yul\":211:328   */\n    tag_16:\n        /* \"#utility.yul\":320:321   */\n      0x00\n        /* \"#utility.yul\":317:318   */\n      dup1\n        /* \"#utility.yul\":310:322   */\n      revert\n        /* \"#utility.yul\":334:451   */\n    tag_17:\n        /* \"#utility.yul\":443:444   */\n      0x00\n        /* \"#utility.yul\":440:441   */\n      dup1\n        /* \"#utility.yul\":433:445   */\n      revert\n        /* \"#utility.yul\":457:559   */\n    tag_18:\n        /* \"#utility.yul\":498:504   */\n      0x00\n        /* \"#utility.yul\":549:551   */\n      0x1f\n        /* \"#utility.yul\":545:552   */\n      not\n        /* \"#utility.yul\":540:542   */\n      0x1f\n        /* \"#utility.yul\":533:538   */\n      dup4\n        /* \"#utility.yul\":529:543   */\n      add\n        /* \"#utility.yul\":525:553   */\n      and\n        /* \"#utility.yul\":515:553   */\n      swap1\n      pop\n        /* \"#utility.yul\":457:559   */\n      swap2\n      swap1\n      pop\n      jump\t// out\n        /* \"#utility.yul\":565:745   */\n    tag_19:\n        /* \"#utility.yul\":613:690   */\n      0x4e487b7100000000000000000000000000000000000000000000000000000000\n        /* \"#utility.yul\":610:611   */\n      0x00\n        /* \"#utility.yul\":603:691   */\n      mstore\n        /* \"#utility.yul\":710:714   */\n      0x41\n        /* \"#utility.yul\":707:708   */\n      0x04\n        /* \"#utility.yul\":700:715   */\n      mstore\n        /* \"#utility.yul\":734:738   */\n      0x24\n        /* \"#utility.yul\":731:732   */\n      0x00\n        /* \"#utility.yul\":724:739   */\n      revert\n        /* \"#utility.yul\":751:1032   */\n    tag_20:\n        /* \"#utility.yul\":834:861   */\n      tag_60\n        /* \"#utility.yul\":856:860   */\n      dup3\n        /* \"#utility.yul\":834:861   */\n      tag_18\n      jump\t// in\n    tag_60:\n        /* \"#utility.yul\":826:832   */\n      dup2\n        /* \"#utility.yul\":822:862   */\n      add\n        /* \"#utility.yul\":964:970   */\n      dup2\n        /* \"#utility.yul\":952:962   */\n      dup2\n        /* \"#utility.yul\":949:971   */\n      lt\n        /* \"#utility.yul\":928:946   */\n      0xffffffffffffffff\n        /* \"#utility.yul\":916:926   */\n      dup3\n        /* \"#utility.yul\":913:947   */\n      gt\n        /* \"#utility.yul\":910:972   */\n      or\n        /* \"#utility.yul\":907:995   */\n      iszero\n      tag_61\n      jumpi\n        /* \"#utility.yul\":975:993   */\n      tag_62\n      tag_19\n      jump\t// in\n    tag_62:\n        /* \"#utility.yul\":907:995   */\n    tag_61:\n        /* \"#utility.yul\":1015:1025   */\n      dup1\n        /* \"#utility.yul\":1011:1013   */\n      0x40\n        /* \"#utility.yul\":1004:1026   */\n      mstore\n        /* \"#utility.yul\":794:1032   */\n      pop\n        /* \"#utility.yul\":751:1032   */\n      pop\n      pop\n      jump\t// out\n        /* \"#utility.yul\":1038:1167   */\n    tag_21:\n        /* \"#utility.yul\":1072:1078   */\n      0x00\n        /* \"#utility.yul\":1099:1119   */\n      tag_64\n      tag_14\n      jump\t// in\n    tag_64:\n        /* \"#utility.yul\":1089:1119   */\n      swap1\n      pop\n        /* \"#utility.yul\":1128:1161   */\n      tag_65\n        /* \"#utility.yul\":1156:1160   */\n      dup3\n        /* \"#utility.yul\":1148:1154   */\n      dup3\n        /* \"#utility.yul\":1128:1161   */\n      tag_20\n      jump\t// in\n    tag_65:\n        /* \"#utility.yul\":1038:1167   */\n      swap2\n      swap1\n      pop\n      jump\t// out\n        /* \"#utility.yul\":1173:1290   */\n    tag_22:\n        /* \"#utility.yul\":1282:1283   */\n      0x00\n        /* \"#utility.yul\":1279:1280   */\n      dup1\n        /* \"#utility.yul\":1272:1284   */\n      revert\n        /* \"#utility.yul\":1296:1413   */\n    tag_23:\n        /* \"#utility.yul\":1405:1406   */\n      0x00\n        /* \"#utility.yul\":1402:1403   */\n      dup1\n        /* \"#utility.yul\":1395:1407   */\n      revert\n        /* \"#utility.yul\":1419:1536   */\n    tag_24:\n        /* \"#utility.yul\":1528:1529   */\n      0x00\n        /* \"#utility.yul\":1525:1526   */\n      dup1\n        /* \"#utility.yul\":1518:1530   */\n      revert\n        /* \"#utility.yul\":1542:1850   */\n    tag_25:\n        /* \"#utility.yul\":1604:1608   */\n      0x00\n        /* \"#utility.yul\":1694:1712   */\n      0xffffffffffffffff\n        /* \"#utility.yul\":1686:1692   */\n      dup3\n        /* \"#utility.yul\":1683:1713   */\n      gt\n        /* \"#utility.yul\":1680:1736   */\n      iszero\n      tag_70\n      jumpi\n        /* \"#utility.yul\":1716:1734   */\n      tag_71\n      tag_19\n      jump\t// in\n    tag_71:\n        /* \"#utility.yul\":1680:1736   */\n    tag_70:\n        /* \"#utility.yul\":1754:1783   */\n      tag_72\n        /* \"#utility.yul\":1776:1782   */\n      dup3\n        /* \"#utility.yul\":1754:1783   */\n      tag_18\n      jump\t// in\n    tag_72:\n        /* \"#utility.yul\":1746:1783   */\n      swap1\n      pop\n        /* \"#utility.yul\":1838:1842   */\n      0x20\n        /* \"#utility.yul\":1832:1836   */\n      dup2\n        /* \"#utility.yul\":1828:1843   */\n      add\n        /* \"#utility.yul\":1820:1843   */\n      swap1\n      pop\n        /* \"#utility.yul\":1542:1850   */\n      swap2\n      swap1\n      pop\n      jump\t// out\n        /* \"#utility.yul\":1856:2002   */\n    tag_26:\n        /* \"#utility.yul\":1953:1959   */\n      dup3\n        /* \"#utility.yul\":1948:1951   */\n      dup2\n        /* \"#utility.yul\":1943:1946   */\n      dup4\n        /* \"#utility.yul\":1930:1960   */\n      calldatacopy\n        /* \"#utility.yul\":1994:1995   */\n      0x00\n        /* \"#utility.yul\":1985:1991   */\n      dup4\n        /* \"#utility.yul\":1980:1983   */\n      dup4\n        /* \"#utility.yul\":1976:1992   */\n      add\n        /* \"#utility.yul\":1969:1996   */\n      mstore\n        /* \"#utility.yul\":1856:2002   */\n      pop\n      pop\n      pop\n      jump\t// out\n        /* \"#utility.yul\":2008:2433   */\n    tag_27:\n        /* \"#utility.yul\":2086:2091   */\n      0x00\n        /* \"#utility.yul\":2111:2177   */\n      tag_75\n        /* \"#utility.yul\":2127:2176   */\n      tag_76\n        /* \"#utility.yul\":2169:2175   */\n      dup5\n        /* \"#utility.yul\":2127:2176   */\n      tag_25\n      jump\t// in\n    tag_76:\n        /* \"#utility.yul\":2111:2177   */\n      tag_21\n      jump\t// in\n    tag_75:\n        /* \"#utility.yul\":2102:2177   */\n      swap1\n      pop\n        /* \"#utility.yul\":2200:2206   */\n      dup3\n        /* \"#utility.yul\":2193:2198   */\n      dup2\n        /* \"#utility.yul\":2186:2207   */\n      mstore\n        /* \"#utility.yul\":2238:2242   */\n      0x20\n        /* \"#utility.yul\":2231:2236   */\n      dup2\n        /* \"#utility.yul\":2227:2243   */\n      add\n        /* \"#utility.yul\":2276:2279   */\n      dup5\n        /* \"#utility.yul\":2267:2273   */\n      dup5\n        /* \"#utility.yul\":2262:2265   */\n      dup5\n        /* \"#utility.yul\":2258:2274   */\n      add\n        /* \"#utility.yul\":2255:2280   */\n      gt\n        /* \"#utility.yul\":2252:2364   */\n      iszero\n      tag_77\n      jumpi\n        /* \"#utility.yul\":2283:2362   */\n      tag_78\n      tag_24\n      jump\t// in\n    tag_78:\n        /* \"#utility.yul\":2252:2364   */\n    tag_77:\n        /* \"#utility.yul\":2373:2427   */\n      tag_79\n        /* \"#utility.yul\":2420:2426   */\n      dup5\n        /* \"#utility.yul\":2415:2418   */\n      dup3\n        /* \"#utility.yul\":2410:2413   */\n      dup6\n        /* \"#utility.yul\":2373:2427   */\n      tag_26\n      jump\t// in\n    tag_79:\n        /* \"#utility.yul\":2092:2433   */\n      pop\n        /* \"#utility.yul\":2008:2433   */\n      swap4\n      swap3\n      pop\n      pop\n      pop\n      jump\t// out\n        /* \"#utility.yul\":2453:2793   */\n    tag_28:\n        /* \"#utility.yul\":2509:2514   */\n      0x00\n        /* \"#utility.yul\":2558:2561   */\n      dup3\n        /* \"#utility.yul\":2551:2555   */\n      0x1f\n        /* \"#utility.yul\":2543:2549   */\n      dup4\n        /* \"#utility.yul\":2539:2556   */\n      add\n        /* \"#utility.yul\":2535:2562   */\n      slt\n        /* \"#utility.yul\":2525:2647   */\n      tag_81\n      jumpi\n        /* \"#utility.yul\":2566:2645   */\n      tag_82\n      tag_23\n      jump\t// in\n    tag_82:\n        /* \"#utility.yul\":2525:2647   */\n    tag_81:\n        /* \"#utility.yul\":2683:2689   */\n      dup2\n        /* \"#utility.yul\":2670:2690   */\n      calldataload\n        /* \"#utility.yul\":2708:2787   */\n      tag_83\n        /* \"#utility.yul\":2783:2786   */\n      dup5\n        /* \"#utility.yul\":2775:2781   */\n      dup3\n        /* \"#utility.yul\":2768:2772   */\n      0x20\n        /* \"#utility.yul\":2760:2766   */\n      dup7\n        /* \"#utility.yul\":2756:2773   */\n      add\n        /* \"#utility.yul\":2708:2787   */\n      tag_27\n      jump\t// in\n    tag_83:\n        /* \"#utility.yul\":2699:2787   */\n      swap2\n      pop\n        /* \"#utility.yul\":2515:2793   */\n      pop\n        /* \"#utility.yul\":2453:2793   */\n      swap3\n      swap2\n      pop\n      pop\n      jump\t// out\n        /* \"#utility.yul\":2830:3752   */\n    tag_29:\n        /* \"#utility.yul\":2906:2911   */\n      0x00\n        /* \"#utility.yul\":2950:2954   */\n      0x40\n        /* \"#utility.yul\":2938:2947   */\n      dup3\n        /* \"#utility.yul\":2933:2936   */\n      dup5\n        /* \"#utility.yul\":2929:2948   */\n      sub\n        /* \"#utility.yul\":2925:2955   */\n      slt\n        /* \"#utility.yul\":2922:3039   */\n      iszero\n      tag_85\n      jumpi\n        /* \"#utility.yul\":2958:3037   */\n      tag_86\n      tag_17\n      jump\t// in\n    tag_86:\n        /* \"#utility.yul\":2922:3039   */\n    tag_85:\n        /* \"#utility.yul\":3057:3078   */\n      tag_87\n        /* \"#utility.yul\":3073:3077   */\n      0x40\n        /* \"#utility.yul\":3057:3078   */\n      tag_21\n      jump\t// in\n    tag_87:\n        /* \"#utility.yul\":3048:3078   */\n      swap1\n      pop\n        /* \"#utility.yul\":3168:3169   */\n      0x00\n        /* \"#utility.yul\":3157:3166   */\n      dup3\n        /* \"#utility.yul\":3153:3170   */\n      add\n        /* \"#utility.yul\":3140:3171   */\n      calldataload\n        /* \"#utility.yul\":3198:3216   */\n      0xffffffffffffffff\n        /* \"#utility.yul\":3190:3196   */\n      dup2\n        /* \"#utility.yul\":3187:3217   */\n      gt\n        /* \"#utility.yul\":3184:3301   */\n      iszero\n      tag_88\n      jumpi\n        /* \"#utility.yul\":3220:3299   */\n      tag_89\n      tag_22\n      jump\t// in\n    tag_89:\n        /* \"#utility.yul\":3184:3301   */\n    tag_88:\n        /* \"#utility.yul\":3340:3399   */\n      tag_90\n        /* \"#utility.yul\":3395:3398   */\n      dup5\n        /* \"#utility.yul\":3386:3392   */\n      dup3\n        /* \"#utility.yul\":3375:3384   */\n      dup6\n        /* \"#utility.yul\":3371:3393   */\n      add\n        /* \"#utility.yul\":3340:3399   */\n      tag_28\n      jump\t// in\n    tag_90:\n        /* \"#utility.yul\":3333:3337   */\n      0x00\n        /* \"#utility.yul\":3326:3331   */\n      dup4\n        /* \"#utility.yul\":3322:3338   */\n      add\n        /* \"#utility.yul\":3315:3400   */\n      mstore\n        /* \"#utility.yul\":3088:3411   */\n      pop\n        /* \"#utility.yul\":3501:3503   */\n      0x20\n        /* \"#utility.yul\":3490:3499   */\n      dup3\n        /* \"#utility.yul\":3486:3504   */\n      add\n        /* \"#utility.yul\":3473:3505   */\n      calldataload\n        /* \"#utility.yul\":3532:3550   */\n      0xffffffffffffffff\n        /* \"#utility.yul\":3524:3530   */\n      dup2\n        /* \"#utility.yul\":3521:3551   */\n      gt\n        /* \"#utility.yul\":3518:3635   */\n      iszero\n      tag_91\n      jumpi\n        /* \"#utility.yul\":3554:3633   */\n      tag_92\n      tag_22\n      jump\t// in\n    tag_92:\n        /* \"#utility.yul\":3518:3635   */\n    tag_91:\n        /* \"#utility.yul\":3674:3733   */\n      tag_93\n        /* \"#utility.yul\":3729:3732   */\n      dup5\n        /* \"#utility.yul\":3720:3726   */\n      dup3\n        /* \"#utility.yul\":3709:3718   */\n      dup6\n        /* \"#utility.yul\":3705:3727   */\n      add\n        /* \"#utility.yul\":3674:3733   */\n      tag_28\n      jump\t// in\n    tag_93:\n        /* \"#utility.yul\":3667:3671   */\n      0x20\n        /* \"#utility.yul\":3660:3665   */\n      dup4\n        /* \"#utility.yul\":3656:3672   */\n      add\n        /* \"#utility.yul\":3649:3734   */\n      mstore\n        /* \"#utility.yul\":3421:3745   */\n      pop\n        /* \"#utility.yul\":2830:3752   */\n      swap3\n      swap2\n      pop\n      pop\n      jump\t// out\n        /* \"#utility.yul\":3758:4301   */\n    tag_6:\n        /* \"#utility.yul\":3844:3850   */\n      0x00\n        /* \"#utility.yul\":3893:3895   */\n      0x20\n        /* \"#utility.yul\":3881:3890   */\n      dup3\n        /* \"#utility.yul\":3872:3879   */\n      dup5\n        /* \"#utility.yul\":3868:3891   */\n      sub\n        /* \"#utility.yul\":3864:3896   */\n      slt\n        /* \"#utility.yul\":3861:3980   */\n      iszero\n      tag_95\n      jumpi\n        /* \"#utility.yul\":3899:3978   */\n      tag_96\n      tag_15\n      jump\t// in\n    tag_96:\n        /* \"#utility.yul\":3861:3980   */\n    tag_95:\n        /* \"#utility.yul\":4047:4048   */\n      0x00\n        /* \"#utility.yul\":4036:4045   */\n      dup3\n        /* \"#utility.yul\":4032:4049   */\n      add\n        /* \"#utility.yul\":4019:4050   */\n      calldataload\n        /* \"#utility.yul\":4077:4095   */\n      0xffffffffffffffff\n        /* \"#utility.yul\":4069:4075   */\n      dup2\n        /* \"#utility.yul\":4066:4096   */\n      gt\n        /* \"#utility.yul\":4063:4180   */\n      iszero\n      tag_97\n      jumpi\n        /* \"#utility.yul\":4099:4178   */\n      tag_98\n      tag_16\n      jump\t// in\n    tag_98:\n        /* \"#utility.yul\":4063:4180   */\n    tag_97:\n        /* \"#utility.yul\":4204:4284   */\n      tag_99\n        /* \"#utility.yul\":4276:4283   */\n      dup5\n        /* \"#utility.yul\":4267:4273   */\n      dup3\n        /* \"#utility.yul\":4256:4265   */\n      dup6\n        /* \"#utility.yul\":4252:4274   */\n      add\n        /* \"#utility.yul\":4204:4284   */\n      tag_29\n      jump\t// in\n    tag_99:\n        /* \"#utility.yul\":4194:4284   */\n      swap2\n      pop\n        /* \"#utility.yul\":3990:4294   */\n      pop\n        /* \"#utility.yul\":3758:4301   */\n      swap3\n      swap2\n      pop\n      pop\n      jump\t// out\n        /* \"#utility.yul\":4307:4406   */\n    tag_30:\n        /* \"#utility.yul\":4359:4365   */\n      0x00\n        /* \"#utility.yul\":4393:4398   */\n      dup2\n        /* \"#utility.yul\":4387:4399   */\n      mload\n        /* \"#utility.yul\":4377:4399   */\n      swap1\n      pop\n        /* \"#utility.yul\":4307:4406   */\n      swap2\n      swap1\n      pop\n      jump\t// out\n        /* \"#utility.yul\":4412:4560   */\n    tag_31:\n        /* \"#utility.yul\":4514:4525   */\n      0x00\n        /* \"#utility.yul\":4551:4554   */\n      dup2\n        /* \"#utility.yul\":4536:4554   */\n      swap1\n      pop\n        /* \"#utility.yul\":4412:4560   */\n      swap3\n      swap2\n      pop\n      pop\n      jump\t// out\n        /* \"#utility.yul\":4566:4812   */\n    tag_32:\n        /* \"#utility.yul\":4647:4648   */\n      0x00\n        /* \"#utility.yul\":4657:4770   */\n    tag_103:\n        /* \"#utility.yul\":4671:4677   */\n      dup4\n        /* \"#utility.yul\":4668:4669   */\n      dup2\n        /* \"#utility.yul\":4665:4678   */\n      lt\n        /* \"#utility.yul\":4657:4770   */\n      iszero\n      tag_105\n      jumpi\n        /* \"#utility.yul\":4756:4757   */\n      dup1\n        /* \"#utility.yul\":4751:4754   */\n      dup3\n        /* \"#utility.yul\":4747:4758   */\n      add\n        /* \"#utility.yul\":4741:4759   */\n      mload\n        /* \"#utility.yul\":4737:4738   */\n      dup2\n        /* \"#utility.yul\":4732:4735   */\n      dup5\n        /* \"#utility.yul\":4728:4739   */\n      add\n        /* \"#utility.yul\":4721:4760   */\n      mstore\n        /* \"#utility.yul\":4693:4695   */\n      0x20\n        /* \"#utility.yul\":4690:4691   */\n      dup2\n        /* \"#utility.yul\":4686:4696   */\n      add\n        /* \"#utility.yul\":4681:4696   */\n      swap1\n      pop\n        /* \"#utility.yul\":4657:4770   */\n      jump(tag_103)\n    tag_105:\n        /* \"#utility.yul\":4804:4805   */\n      0x00\n        /* \"#utility.yul\":4795:4801   */\n      dup5\n        /* \"#utility.yul\":4790:4793   */\n      dup5\n        /* \"#utility.yul\":4786:4802   */\n      add\n        /* \"#utility.yul\":4779:4806   */\n      mstore\n        /* \"#utility.yul\":4628:4812   */\n      pop\n        /* \"#utility.yul\":4566:4812   */\n      pop\n      pop\n      pop\n      jump\t// out\n        /* \"#utility.yul\":4818:5208   */\n    tag_33:\n        /* \"#utility.yul\":4924:4927   */\n      0x00\n        /* \"#utility.yul\":4952:4991   */\n      tag_107\n        /* \"#utility.yul\":4985:4990   */\n      dup3\n        /* \"#utility.yul\":4952:4991   */\n      tag_30\n      jump\t// in\n    tag_107:\n        /* \"#utility.yul\":5007:5096   */\n      tag_108\n        /* \"#utility.yul\":5089:5095   */\n      dup2\n        /* \"#utility.yul\":5084:5087   */\n      dup6\n        /* \"#utility.yul\":5007:5096   */\n      tag_31\n      jump\t// in\n    tag_108:\n        /* \"#utility.yul\":5000:5096   */\n      swap4\n      pop\n        /* \"#utility.yul\":5105:5170   */\n      tag_109\n        /* \"#utility.yul\":5163:5169   */\n      dup2\n        /* \"#utility.yul\":5158:5161   */\n      dup6\n        /* \"#utility.yul\":5151:5155   */\n      0x20\n        /* \"#utility.yul\":5144:5149   */\n      dup7\n        /* \"#utility.yul\":5140:5156   */\n      add\n        /* \"#utility.yul\":5105:5170   */\n      tag_32\n      jump\t// in\n    tag_109:\n        /* \"#utility.yul\":5195:5201   */\n      dup1\n        /* \"#utility.yul\":5190:5193   */\n      dup5\n        /* \"#utility.yul\":5186:5202   */\n      add\n        /* \"#utility.yul\":5179:5202   */\n      swap2\n      pop\n        /* \"#utility.yul\":4928:5208   */\n      pop\n        /* \"#utility.yul\":4818:5208   */\n      swap3\n      swap2\n      pop\n      pop\n      jump\t// out\n        /* \"#utility.yul\":5214:5489   */\n    tag_10:\n        /* \"#utility.yul\":5346:5349   */\n      0x00\n        /* \"#utility.yul\":5368:5463   */\n      tag_111\n        /* \"#utility.yul\":5459:5462   */\n      dup3\n        /* \"#utility.yul\":5450:5456   */\n      dup5\n        /* \"#utility.yul\":5368:5463   */\n      tag_33\n      jump\t// in\n    tag_111:\n        /* \"#utility.yul\":5361:5463   */\n      swap2\n      pop\n        /* \"#utility.yul\":5480:5483   */\n      dup2\n        /* \"#utility.yul\":5473:5483   */\n      swap1\n      pop\n        /* \"#utility.yul\":5214:5489   */\n      swap3\n      swap2\n      pop\n      pop\n      jump\t// out\n        /* \"#utility.yul\":5495:5675   */\n    tag_34:\n        /* \"#utility.yul\":5543:5620   */\n      0x4e487b7100000000000000000000000000000000000000000000000000000000\n        /* \"#utility.yul\":5540:5541   */\n      0x00\n        /* \"#utility.yul\":5533:5621   */\n      mstore\n        /* \"#utility.yul\":5640:5644   */\n      0x22\n        /* \"#utility.yul\":5637:5638   */\n      0x04\n        /* \"#utility.yul\":5630:5645   */\n      mstore\n        /* \"#utility.yul\":5664:5668   */\n      0x24\n        /* \"#utility.yul\":5661:5662   */\n      0x00\n        /* \"#utility.yul\":5654:5669   */\n      revert\n        /* \"#utility.yul\":5681:6001   */\n    tag_35:\n        /* \"#utility.yul\":5725:5731   */\n      0x00\n        /* \"#utility.yul\":5762:5763   */\n      0x02\n        /* \"#utility.yul\":5756:5760   */\n      dup3\n        /* \"#utility.yul\":5752:5764   */\n      div\n        /* \"#utility.yul\":5742:5764   */\n      swap1\n      pop\n        /* \"#utility.yul\":5809:5810   */\n      0x01\n        /* \"#utility.yul\":5803:5807   */\n      dup3\n        /* \"#utility.yul\":5799:5811   */\n      and\n        /* \"#utility.yul\":5830:5848   */\n      dup1\n        /* \"#utility.yul\":5820:5901   */\n      tag_114\n      jumpi\n        /* \"#utility.yul\":5886:5890   */\n      0x7f\n        /* \"#utility.yul\":5878:5884   */\n      dup3\n        /* \"#utility.yul\":5874:5891   */\n      and\n        /* \"#utility.yul\":5864:5891   */\n      swap2\n      pop\n        /* \"#utility.yul\":5820:5901   */\n    tag_114:\n        /* \"#utility.yul\":5948:5950   */\n      0x20\n        /* \"#utility.yul\":5940:5946   */\n      dup3\n        /* \"#utility.yul\":5937:5951   */\n      lt\n        /* \"#utility.yul\":5917:5935   */\n      dup2\n        /* \"#utility.yul\":5914:5952   */\n      sub\n        /* \"#utility.yul\":5911:5995   */\n      tag_115\n      jumpi\n        /* \"#utility.yul\":5967:5985   */\n      tag_116\n      tag_34\n      jump\t// in\n    tag_116:\n        /* \"#utility.yul\":5911:5995   */\n    tag_115:\n        /* \"#utility.yul\":5732:6001   */\n      pop\n        /* \"#utility.yul\":5681:6001   */\n      swap2\n      swap1\n      pop\n      jump\t// out\n        /* \"#utility.yul\":6007:6148   */\n    tag_36:\n        /* \"#utility.yul\":6056:6060   */\n      0x00\n        /* \"#utility.yul\":6079:6082   */\n      dup2\n        /* \"#utility.yul\":6071:6082   */\n      swap1\n      pop\n        /* \"#utility.yul\":6102:6105   */\n      dup2\n        /* \"#utility.yul\":6099:6100   */\n      0x00\n        /* \"#utility.yul\":6092:6106   */\n      mstore\n        /* \"#utility.yul\":6136:6140   */\n      0x20\n        /* \"#utility.yul\":6133:6134   */\n      0x00\n        /* \"#utility.yul\":6123:6141   */\n      keccak256\n        /* \"#utility.yul\":6115:6141   */\n      swap1\n      pop\n        /* \"#utility.yul\":6007:6148   */\n      swap2\n      swap1\n      pop\n      jump\t// out\n        /* \"#utility.yul\":6154:6247   */\n    tag_37:\n        /* \"#utility.yul\":6191:6197   */\n      0x00\n        /* \"#utility.yul\":6238:6240   */\n      0x20\n        /* \"#utility.yul\":6233:6235   */\n      0x1f\n        /* \"#utility.yul\":6226:6231   */\n      dup4\n        /* \"#utility.yul\":6222:6236   */\n      add\n        /* \"#utility.yul\":6218:6241   */\n      div\n        /* \"#utility.yul\":6208:6241   */\n      swap1\n      pop\n        /* \"#utility.yul\":6154:6247   */\n      swap2\n      swap1\n      pop\n      jump\t// out\n        /* \"#utility.yul\":6253:6360   */\n    tag_38:\n        /* \"#utility.yul\":6297:6305   */\n      0x00\n        /* \"#utility.yul\":6347:6352   */\n      dup3\n        /* \"#utility.yul\":6341:6345   */\n      dup3\n        /* \"#utility.yul\":6337:6353   */\n      shl\n        /* \"#utility.yul\":6316:6353   */\n      swap1\n      pop\n        /* \"#utility.yul\":6253:6360   */\n      swap3\n      swap2\n      pop\n      pop\n      jump\t// out\n        /* \"#utility.yul\":6366:6759   */\n    tag_39:\n        /* \"#utility.yul\":6435:6441   */\n      0x00\n        /* \"#utility.yul\":6485:6486   */\n      0x08\n        /* \"#utility.yul\":6473:6483   */\n      dup4\n        /* \"#utility.yul\":6469:6487   */\n      mul\n        /* \"#utility.yul\":6508:6605   */\n      tag_121\n        /* \"#utility.yul\":6538:6604   */\n      0xffffffffffffffffffffffffffffffffffffffffffffffffffffffffffffffff\n        /* \"#utility.yul\":6527:6536   */\n      dup3\n        /* \"#utility.yul\":6508:6605   */\n      tag_38\n      jump\t// in\n    tag_121:\n        /* \"#utility.yul\":6626:6665   */\n      tag_122\n        /* \"#utility.yul\":6656:6664   */\n      dup7\n        /* \"#utility.yul\":6645:6654   */\n      dup4\n        /* \"#utility.yul\":6626:6665   */\n      tag_38\n      jump\t// in\n    tag_122:\n        /* \"#utility.yul\":6614:6665   */\n      swap6\n      pop\n        /* \"#utility.yul\":6698:6702   */\n      dup1\n        /* \"#utility.yul\":6694:6703   */\n      not\n        /* \"#utility.yul\":6687:6692   */\n      dup5\n        /* \"#utility.yul\":6683:6704   */\n      and\n        /* \"#utility.yul\":6674:6704   */\n      swap4\n      pop\n        /* \"#utility.yul\":6747:6751   */\n      dup1\n        /* \"#utility.yul\":6737:6745   */\n      dup7\n        /* \"#utility.yul\":6733:6752   */\n      and\n        /* \"#utility.yul\":6726:6731   */\n      dup5\n        /* \"#utility.yul\":6723:6753   */\n      or\n        /* \"#utility.yul\":6713:6753   */\n      swap3\n      pop\n        /* \"#utility.yul\":6442:6759   */\n      pop\n      pop\n        /* \"#utility.yul\":6366:6759   */\n      swap4\n      swap3\n      pop\n      pop\n      pop\n      jump\t// out\n        /* \"#utility.yul\":6765:6842   */\n    tag_40:\n        /* \"#utility.yul\":6802:6809   */\n      0x00\n        /* \"#utility.yul\":6831:6836   */\n      dup2\n        /* \"#utility.yul\":6820:6836   */\n      swap1\n      pop\n        /* \"#utility.yul\":6765:6842   */\n      swap2\n      swap1\n      pop\n      jump\t// out\n        /* \"#utility.yul\":6848:6908   */\n    tag_41:\n        /* \"#utility.yul\":6876:6879   */\n      0x00\n        /* \"#utility.yul\":6897:6902   */\n      dup2\n        /* \"#utility.yul\":6890:6902   */\n      swap1\n      pop\n        /* \"#utility.yul\":6848:6908   */\n      swap2\n      swap1\n      pop\n      jump\t// out\n        /* \"#utility.yul\":6914:7056   */\n    tag_42:\n        /* \"#utility.yul\":6964:6973   */\n      0x00\n        /* \"#utility.yul\":6997:7050   */\n      tag_126\n        /* \"#utility.yul\":7015:7049   */\n      tag_127\n        /* \"#utility.yul\":7024:7048   */\n      tag_128\n        /* \"#utility.yul\":7042:7047   */\n      dup5\n        /* \"#utility.yul\":7024:7048   */\n      tag_40\n      jump\t// in\n    tag_128:\n        /* \"#utility.yul\":7015:7049   */\n      tag_41\n      jump\t// in\n    tag_127:\n        /* \"#utility.yul\":6997:7050   */\n      tag_40\n      jump\t// in\n    tag_126:\n        /* \"#utility.yul\":6984:7050   */\n      swap1\n      pop\n        /* \"#utility.yul\":6914:7056   */\n      swap2\n      swap1\n      pop\n      jump\t// out\n        /* \"#utility.yul\":7062:7137   */\n    tag_43:\n        /* \"#utility.yul\":7105:7108   */\n      0x00\n        /* \"#utility.yul\":7126:7131   */\n      dup2\n        /* \"#utility.yul\":7119:7131   */\n      swap1\n      pop\n        /* \"#utility.yul\":7062:7137   */\n      swap2\n      swap1\n      pop\n      jump\t// out\n        /* \"#utility.yul\":7143:7412   */\n    tag_44:\n        /* \"#utility.yul\":7253:7292   */\n      tag_131\n        /* \"#utility.yul\":7284:7291   */\n      dup4\n        /* \"#utility.yul\":7253:7292   */\n      tag_42\n      jump\t// in\n    tag_131:\n        /* \"#utility.yul\":7314:7405   */\n      tag_132\n        /* \"#utility.yul\":7363:7404   */\n      tag_133\n        /* \"#utility.yul\":7387:7403   */\n      dup3\n        /* \"#utility.yul\":7363:7404   */\n      tag_43\n      jump\t// in\n    tag_133:\n        /* \"#utility.yul\":7355:7361   */\n      dup5\n        /* \"#utility.yul\":7348:7352   */\n      dup5\n        /* \"#utility.yul\":7342:7353   */\n      sload\n        /* \"#utility.yul\":7314:7405   */\n      tag_39\n      jump\t// in\n    tag_132:\n        /* \"#utility.yul\":7308:7312   */\n      dup3\n        /* \"#utility.yul\":7301:7406   */\n      sstore\n        /* \"#utility.yul\":7219:7412   */\n      pop\n        /* \"#utility.yul\":7143:7412   */\n      pop\n      pop\n      pop\n      jump\t// out\n        /* \"#utility.yul\":7418:7491   */\n    tag_45:\n        /* \"#utility.yul\":7463:7466   */\n      0x00\n        /* \"#utility.yul\":7418:7491   */\n      swap1\n      jump\t// out\n        /* \"#utility.yul\":7497:7686   */\n    tag_46:\n        /* \"#utility.yul\":7574:7606   */\n      tag_136\n      tag_45\n      jump\t// in\n    tag_136:\n        /* \"#utility.yul\":7615:7680   */\n      tag_137\n        /* \"#utility.yul\":7673:7679   */\n      dup2\n        /* \"#utility.yul\":7665:7671   */\n      dup5\n        /* \"#utility.yul\":7659:7663   */\n      dup5\n        /* \"#utility.yul\":7615:7680   */\n      tag_44\n      jump\t// in\n    tag_137:\n        /* \"#utility.yul\":7550:7686   */\n      pop\n        /* \"#utility.yul\":7497:7686   */\n      pop\n      pop\n      jump\t// out\n        /* \"#utility.yul\":7692:7878   */\n    tag_47:\n        /* \"#utility.yul\":7752:7872   */\n    tag_139:\n        /* \"#utility.yul\":7769:7772   */\n      dup2\n        /* \"#utility.yul\":7762:7767   */\n      dup2\n        /* \"#utility.yul\":7759:7773   */\n      lt\n        /* \"#utility.yul\":7752:7872   */\n      iszero\n      tag_141\n      jumpi\n        /* \"#utility.yul\":7823:7862   */\n      tag_142\n        /* \"#utility.yul\":7860:7861   */\n      0x00\n        /* \"#utility.yul\":7853:7858   */\n      dup3\n        /* \"#utility.yul\":7823:7862   */\n      tag_46\n      jump\t// in\n    tag_142:\n        /* \"#utility.yul\":7796:7797   */\n      0x01\n        /* \"#utility.yul\":7789:7794   */\n      dup2\n        /* \"#utility.yul\":7785:7798   */\n      add\n        /* \"#utility.yul\":7776:7798   */\n      swap1\n      pop\n        /* \"#utility.yul\":7752:7872   */\n      jump(tag_139)\n    tag_141:\n        /* \"#utility.yul\":7692:7878   */\n      pop\n      pop\n      jump\t// out\n        /* \"#utility.yul\":7884:8427   */\n    tag_48:\n        /* \"#utility.yul\":7985:7987   */\n      0x1f\n        /* \"#utility.yul\":7980:7983   */\n      dup3\n        /* \"#utility.yul\":7977:7988   */\n      gt\n        /* \"#utility.yul\":7974:8420   */\n      iszero\n      tag_144\n      jumpi\n        /* \"#utility.yul\":8019:8057   */\n      tag_145\n        /* \"#utility.yul\":8051:8056   */\n      dup2\n        /* \"#utility.yul\":8019:8057   */\n      tag_36\n      jump\t// in\n    tag_145:\n        /* \"#utility.yul\":8103:8132   */\n      tag_146\n        /* \"#utility.yul\":8121:8131   */\n      dup5\n        /* \"#utility.yul\":8103:8132   */\n      tag_37\n      jump\t// in\n    tag_146:\n        /* \"#utility.yul\":8093:8101   */\n      dup2\n        /* \"#utility.yul\":8089:8133   */\n      add\n        /* \"#utility.yul\":8286:8288   */\n      0x20\n        /* \"#utility.yul\":8274:8284   */\n      dup6\n        /* \"#utility.yul\":8271:8289   */\n      lt\n        /* \"#utility.yul\":8268:8317   */\n      iszero\n      tag_147\n      jumpi\n        /* \"#utility.yul\":8307:8315   */\n      dup2\n        /* \"#utility.yul\":8292:8315   */\n      swap1\n      pop\n        /* \"#utility.yul\":8268:8317   */\n    tag_147:\n        /* \"#utility.yul\":8330:8410   */\n      tag_148\n        /* \"#utility.yul\":8386:8408   */\n      tag_149\n        /* \"#utility.yul\":8404:8407   */\n      dup6\n        /* \"#utility.yul\":8386:8408   */\n      tag_37\n      jump\t// in\n    tag_149:\n        /* \"#utility.yul\":8376:8384   */\n      dup4\n        /* \"#utility.yul\":8372:8409   */\n      add\n        /* \"#utility.yul\":8359:8370   */\n      dup3\n        /* \"#utility.yul\":8330:8410   */\n      tag_47\n      jump\t// in\n    tag_148:\n        /* \"#utility.yul\":7989:8420   */\n      pop\n      pop\n        /* \"#utility.yul\":7974:8420   */\n    tag_144:\n        /* \"#utility.yul\":7884:8427   */\n      pop\n      pop\n      pop\n      jump\t// out\n        /* \"#utility.yul\":8433:8550   */\n    tag_49:\n        /* \"#utility.yul\":8487:8495   */\n      0x00\n        /* \"#utility.yul\":8537:8542   */\n      dup3\n        /* \"#utility.yul\":8531:8535   */\n      dup3\n        /* \"#utility.yul\":8527:8543   */\n      shr\n        /* \"#utility.yul\":8506:8543   */\n      swap1\n      pop\n        /* \"#utility.yul\":8433:8550   */\n      swap3\n      swap2\n      pop\n      pop\n      jump\t// out\n        /* \"#utility.yul\":8556:8725   */\n    tag_50:\n        /* \"#utility.yul\":8600:8606   */\n      0x00\n        /* \"#utility.yul\":8633:8684   */\n      tag_152\n        /* \"#utility.yul\":8681:8682   */\n      0x00\n        /* \"#utility.yul\":8677:8683   */\n      not\n        /* \"#utility.yul\":8669:8674   */\n      dup5\n        /* \"#utility.yul\":8666:8667   */\n      0x08\n        /* \"#utility.yul\":8662:8675   */\n      mul\n        /* \"#utility.yul\":8633:8684   */\n      tag_49\n      jump\t// in\n    tag_152:\n        /* \"#utility.yul\":8629:8685   */\n      not\n        /* \"#utility.yul\":8714:8718   */\n      dup1\n        /* \"#utility.yul\":8708:8712   */\n      dup4\n        /* \"#utility.yul\":8704:8719   */\n      and\n        /* \"#utility.yul\":8694:8719   */\n      swap2\n      pop\n        /* \"#utility.yul\":8607:8725   */\n      pop\n        /* \"#utility.yul\":8556:8725   */\n      swap3\n      swap2\n      pop\n      pop\n      jump\t// out\n        /* \"#utility.yul\":8730:9025   */\n    tag_51:\n        /* \"#utility.yul\":8806:8810   */\n      0x00\n        /* \"#utility.yul\":8952:8981   */\n      tag_154\n        /* \"#utility.yul\":8977:8980   */\n      dup4\n        /* \"#utility.yul\":8971:8975   */\n      dup4\n        /* \"#utility.yul\":8952:8981   */\n      tag_50\n      jump\t// in\n    tag_154:\n        /* \"#utility.yul\":8944:8981   */\n      swap2\n      pop\n        /* \"#utility.yul\":9014:9017   */\n      dup3\n        /* \"#utility.yul\":9011:9012   */\n      0x02\n        /* \"#utility.yul\":9007:9018   */\n      mul\n        /* \"#utility.yul\":9001:9005   */\n      dup3\n        /* \"#utility.yul\":8998:9019   */\n      or\n        /* \"#utility.yul\":8990:9019   */\n      swap1\n      pop\n        /* \"#utility.yul\":8730:9025   */\n      swap3\n      swap2\n      pop\n      pop\n      jump\t// out\n        /* \"#utility.yul\":9030:10425   */\n    tag_12:\n        /* \"#utility.yul\":9147:9184   */\n      tag_156\n        /* \"#utility.yul\":9180:9183   */\n      dup3\n        /* \"#utility.yul\":9147:9184   */\n      tag_30\n      jump\t// in\n    tag_156:\n        /* \"#utility.yul\":9249:9267   */\n      0xffffffffffffffff\n        /* \"#utility.yul\":9241:9247   */\n      dup2\n        /* \"#utility.yul\":9238:9268   */\n      gt\n        /* \"#utility.yul\":9235:9291   */\n      iszero\n      tag_157\n      jumpi\n        /* \"#utility.yul\":9271:9289   */\n      tag_158\n      tag_19\n      jump\t// in\n    tag_158:\n        /* \"#utility.yul\":9235:9291   */\n    tag_157:\n        /* \"#utility.yul\":9315:9353   */\n      tag_159\n        /* \"#utility.yul\":9347:9351   */\n      dup3\n        /* \"#utility.yul\":9341:9352   */\n      sload\n        /* \"#utility.yul\":9315:9353   */\n      tag_35\n      jump\t// in\n    tag_159:\n        /* \"#utility.yul\":9400:9467   */\n      tag_160\n        /* \"#utility.yul\":9460:9466   */\n      dup3\n        /* \"#utility.yul\":9452:9458   */\n      dup3\n        /* \"#utility.yul\":9446:9450   */\n      dup6\n        /* \"#utility.yul\":9400:9467   */\n      tag_48\n      jump\t// in\n    tag_160:\n        /* \"#utility.yul\":9494:9495   */\n      0x00\n        /* \"#utility.yul\":9518:9522   */\n      0x20\n        /* \"#utility.yul\":9505:9522   */\n      swap1\n      pop\n        /* \"#utility.yul\":9550:9552   */\n      0x1f\n        /* \"#utility.yul\":9542:9548   */\n      dup4\n        /* \"#utility.yul\":9539:9553   */\n      gt\n        /* \"#utility.yul\":9567:9568   */\n      0x01\n        /* \"#utility.yul\":9562:10180   */\n      dup2\n      eq\n      tag_162\n      jumpi\n        /* \"#utility.yul\":10224:10225   */\n      0x00\n        /* \"#utility.yul\":10241:10247   */\n      dup5\n        /* \"#utility.yul\":10238:10315   */\n      iszero\n      tag_163\n      jumpi\n        /* \"#utility.yul\":10290:10299   */\n      dup3\n        /* \"#utility.yul\":10285:10288   */\n      dup8\n        /* \"#utility.yul\":10281:10300   */\n      add\n        /* \"#utility.yul\":10275:10301   */\n      mload\n        /* \"#utility.yul\":10266:10301   */\n      swap1\n      pop\n        /* \"#utility.yul\":10238:10315   */\n    tag_163:\n        /* \"#utility.yul\":10341:10408   */\n      tag_164\n        /* \"#utility.yul\":10401:10407   */\n      dup6\n        /* \"#utility.yul\":10394:10399   */\n      dup3\n        /* \"#utility.yul\":10341:10408   */\n      tag_51\n      jump\t// in\n    tag_164:\n        /* \"#utility.yul\":10335:10339   */\n      dup7\n        /* \"#utility.yul\":10328:10409   */\n      sstore\n        /* \"#utility.yul\":10197:10419   */\n      pop\n        /* \"#utility.yul\":9532:10419   */\n      jump(tag_161)\n        /* \"#utility.yul\":9562:10180   */\n    tag_162:\n        /* \"#utility.yul\":9614:9618   */\n      0x1f\n        /* \"#utility.yul\":9610:9619   */\n      not\n        /* \"#utility.yul\":9602:9608   */\n      dup5\n        /* \"#utility.yul\":9598:9620   */\n      and\n        /* \"#utility.yul\":9648:9685   */\n      tag_165\n        /* \"#utility.yul\":9680:9684   */\n      dup7\n        /* \"#utility.yul\":9648:9685   */\n      tag_36\n      jump\t// in\n    tag_165:\n        /* \"#utility.yul\":9707:9708   */\n      0x00\n        /* \"#utility.yul\":9721:9929   */\n    tag_166:\n        /* \"#utility.yul\":9735:9742   */\n      dup3\n        /* \"#utility.yul\":9732:9733   */\n      dup2\n        /* \"#utility.yul\":9729:9743   */\n      lt\n        /* \"#utility.yul\":9721:9929   */\n      iszero\n      tag_168\n      jumpi\n        /* \"#utility.yul\":9814:9823   */\n      dup5\n        /* \"#utility.yul\":9809:9812   */\n      dup10\n        /* \"#utility.yul\":9805:9824   */\n      add\n        /* \"#utility.yul\":9799:9825   */\n      mload\n        /* \"#utility.yul\":9791:9797   */\n      dup3\n        /* \"#utility.yul\":9784:9826   */\n      sstore\n        /* \"#utility.yul\":9865:9866   */\n      0x01\n        /* \"#utility.yul\":9857:9863   */\n      dup3\n        /* \"#utility.yul\":9853:9867   */\n      add\n        /* \"#utility.yul\":9843:9867   */\n      swap2\n      pop\n        /* \"#utility.yul\":9912:9914   */\n      0x20\n        /* \"#utility.yul\":9901:9910   */\n      dup6\n        /* \"#utility.yul\":9897:9915   */\n      add\n        /* \"#utility.yul\":9884:9915   */\n      swap5\n      pop\n        /* \"#utility.yul\":9758:9762   */\n      0x20\n        /* \"#utility.yul\":9755:9756   */\n      dup2\n        /* \"#utility.yul\":9751:9763   */\n      add\n        /* \"#utility.yul\":9746:9763   */\n      swap1\n      pop\n        /* \"#utility.yul\":9721:9929   */\n      jump(tag_166)\n    tag_168:\n        /* \"#utility.yul\":9957:9963   */\n      dup7\n        /* \"#utility.yul\":9948:9955   */\n      dup4\n        /* \"#utility.yul\":9945:9964   */\n      lt\n        /* \"#utility.yul\":9942:10121   */\n      iszero\n      tag_169\n      jumpi\n        /* \"#utility.yul\":10015:10024   */\n      dup5\n        /* \"#utility.yul\":10010:10013   */\n      dup10\n        /* \"#utility.yul\":10006:10025   */\n      add\n        /* \"#utility.yul\":10000:10026   */\n      mload\n        /* \"#utility.yul\":10058:10106   */\n      tag_170\n        /* \"#utility.yul\":10100:10104   */\n      0x1f\n        /* \"#utility.yul\":10092:10098   */\n      dup10\n        /* \"#utility.yul\":10088:10105   */\n      and\n        /* \"#utility.yul\":10077:10086   */\n      dup3\n        /* \"#utility.yul\":10058:10106   */\n      tag_50\n      jump\t// in\n    tag_170:\n        /* \"#utility.yul\":10050:10056   */\n      dup4\n        /* \"#utility.yul\":10043:10107   */\n      sstore\n        /* \"#utility.yul\":9965:10121   */\n      pop\n        /* \"#utility.yul\":9942:10121   */\n    tag_169:\n        /* \"#utility.yul\":10167:10168   */\n      0x01\n        /* \"#utility.yul\":10163:10164   */\n      0x02\n        /* \"#utility.yul\":10155:10161   */\n      dup9\n        /* \"#utility.yul\":10151:10165   */\n      mul\n        /* \"#utility.yul\":10147:10169   */\n      add\n        /* \"#utility.yul\":10141:10145   */\n      dup9\n        /* \"#utility.yul\":10134:10170   */\n      sstore\n        /* \"#utility.yul\":9569:10180   */\n      pop\n      pop\n      pop\n        /* \"#utility.yul\":9532:10419   */\n    tag_161:\n      pop\n        /* \"#utility.yul\":9122:10425   */\n      pop\n      pop\n      pop\n        /* \"#utility.yul\":9030:10425   */\n      pop\n      pop\n      jump\t// out\n\n    auxdata: 0xa264697066735822122014ff7983d478794468f12ca9bb03b80fd400f8173cf7117646f3e9cf82d2af4564736f6c63430008110033\n}\n",
				"bytecode": {
					"linkReferences": {},
					"object": "608060405234801561001057600080fd5b5061067c806100206000396000f3fe608060405234801561001057600080fd5b506004361061002b5760003560e01c80633f06d64114610030575b600080fd5b61004a6004803603810190610045919061028d565b61004c565b005b80600182600001516040516100619190610347565b908152602001604051809103902060008201518160000190816100849190610574565b50602082015181600101908161009a9190610574565b5090505050565b6000604051905090565b600080fd5b600080fd5b600080fd5b6000601f19601f8301169050919050565b7f4e487b7100000000000000000000000000000000000000000000000000000000600052604160045260246000fd5b610103826100ba565b810181811067ffffffffffffffff82111715610122576101216100cb565b5b80604052505050565b60006101356100a1565b905061014182826100fa565b919050565b600080fd5b600080fd5b600080fd5b600067ffffffffffffffff8211156101705761016f6100cb565b5b610179826100ba565b9050602081019050919050565b82818337600083830152505050565b60006101a86101a384610155565b61012b565b9050828152602081018484840111156101c4576101c3610150565b5b6101cf848285610186565b509392505050565b600082601f8301126101ec576101eb61014b565b5b81356101fc848260208601610195565b91505092915050565b60006040828403121561021b5761021a6100b5565b5b610225604061012b565b9050600082013567ffffffffffffffff81111561024557610244610146565b5b610251848285016101d7565b600083015250602082013567ffffffffffffffff81111561027557610274610146565b5b610281848285016101d7565b60208301525092915050565b6000602082840312156102a3576102a26100ab565b5b600082013567ffffffffffffffff8111156102c1576102c06100b0565b5b6102cd84828501610205565b91505092915050565b600081519050919050565b600081905092915050565b60005b8381101561030a5780820151818401526020810190506102ef565b60008484015250505050565b6000610321826102d6565b61032b81856102e1565b935061033b8185602086016102ec565b80840191505092915050565b60006103538284610316565b915081905092915050565b7f4e487b7100000000000000000000000000000000000000000000000000000000600052602260045260246000fd5b600060028204905060018216806103a557607f821691505b6020821081036103b8576103b761035e565b5b50919050565b60008190508160005260206000209050919050565b60006020601f8301049050919050565b600082821b905092915050565b6000600883026104207fffffffffffffffffffffffffffffffffffffffffffffffffffffffffffffffff826103e3565b61042a86836103e3565b95508019841693508086168417925050509392505050565b6000819050919050565b6000819050919050565b600061047161046c61046784610442565b61044c565b610442565b9050919050565b6000819050919050565b61048b83610456565b61049f61049782610478565b8484546103f0565b825550505050565b600090565b6104b46104a7565b6104bf818484610482565b505050565b5b818110156104e3576104d86000826104ac565b6001810190506104c5565b5050565b601f821115610528576104f9816103be565b610502846103d3565b81016020851015610511578190505b61052561051d856103d3565b8301826104c4565b50505b505050565b600082821c905092915050565b600061054b6000198460080261052d565b1980831691505092915050565b6000610564838361053a565b9150826002028217905092915050565b61057d826102d6565b67ffffffffffffffff811115610596576105956100cb565b5b6105a0825461038d565b6105ab8282856104e7565b600060209050601f8311600181146105de57600084156105cc578287015190505b6105d68582610558565b86555061063e565b601f1984166105ec866103be565b60005b82811015610614578489015182556001820191506020850194506020810190506105ef565b86831015610631578489015161062d601f89168261053a565b8355505b6001600288020188555050505b50505050505056fea264697066735822122014ff7983d478794468f12ca9bb03b80fd400f8173cf7117646f3e9cf82d2af4564736f6c63430008110033",
					"opcodes": "PUSH1 0x80 PUSH1 0x40 MSTORE CALLVALUE DUP1 ISZERO PUSH2 0x10 JUMPI PUSH1 0x0 DUP1 REVERT JUMPDEST POP PUSH2 0x67C DUP1 PUSH2 0x20 PUSH1 0x0 CODECOPY PUSH1 0x0 RETURN INVALID PUSH1 0x80 PUSH1 0x40 MSTORE CALLVALUE DUP1 ISZERO PUSH2 0x10 JUMPI PUSH1 0x0 DUP1 REVERT JUMPDEST POP PUSH1 0x4 CALLDATASIZE LT PUSH2 0x2B JUMPI PUSH1 0x0 CALLDATALOAD PUSH1 0xE0 SHR DUP1 PUSH4 0x3F06D641 EQ PUSH2 0x30 JUMPI JUMPDEST PUSH1 0x0 DUP1 REVERT JUMPDEST PUSH2 0x4A PUSH1 0x4 DUP1 CALLDATASIZE SUB DUP2 ADD SWAP1 PUSH2 0x45 SWAP2 SWAP1 PUSH2 0x28D JUMP JUMPDEST PUSH2 0x4C JUMP JUMPDEST STOP JUMPDEST DUP1 PUSH1 0x1 DUP3 PUSH1 0x0 ADD MLOAD PUSH1 0x40 MLOAD PUSH2 0x61 SWAP2 SWAP1 PUSH2 0x347 JUMP JUMPDEST SWAP1 DUP2 MSTORE PUSH1 0x20 ADD PUSH1 0x40 MLOAD DUP1 SWAP2 SUB SWAP1 KECCAK256 PUSH1 0x0 DUP3 ADD MLOAD DUP2 PUSH1 0x0 ADD SWAP1 DUP2 PUSH2 0x84 SWAP2 SWAP1 PUSH2 0x574 JUMP JUMPDEST POP PUSH1 0x20 DUP3 ADD MLOAD DUP2 PUSH1 0x1 ADD SWAP1 DUP2 PUSH2 0x9A SWAP2 SWAP1 PUSH2 0x574 JUMP JUMPDEST POP SWAP1 POP POP POP JUMP JUMPDEST PUSH1 0x0 PUSH1 0x40 MLOAD SWAP1 POP SWAP1 JUMP JUMPDEST PUSH1 0x0 DUP1 REVERT JUMPDEST PUSH1 0x0 DUP1 REVERT JUMPDEST PUSH1 0x0 DUP1 REVERT JUMPDEST PUSH1 0x0 PUSH1 0x1F NOT PUSH1 0x1F DUP4 ADD AND SWAP1 POP SWAP2 SWAP1 POP JUMP JUMPDEST PUSH32 0x4E487B7100000000000000000000000000000000000000000000000000000000 PUSH1 0x0 MSTORE PUSH1 0x41 PUSH1 0x4 MSTORE PUSH1 0x24 PUSH1 0x0 REVERT JUMPDEST PUSH2 0x103 DUP3 PUSH2 0xBA JUMP JUMPDEST DUP2 ADD DUP2 DUP2 LT PUSH8 0xFFFFFFFFFFFFFFFF DUP3 GT OR ISZERO PUSH2 0x122 JUMPI PUSH2 0x121 PUSH2 0xCB JUMP JUMPDEST JUMPDEST DUP1 PUSH1 0x40 MSTORE POP POP POP JUMP JUMPDEST PUSH1 0x0 PUSH2 0x135 PUSH2 0xA1 JUMP JUMPDEST SWAP1 POP PUSH2 0x141 DUP3 DUP3 PUSH2 0xFA JUMP JUMPDEST SWAP2 SWAP1 POP JUMP JUMPDEST PUSH1 0x0 DUP1 REVERT JUMPDEST PUSH1 0x0 DUP1 REVERT JUMPDEST PUSH1 0x0 DUP1 REVERT JUMPDEST PUSH1 0x0 PUSH8 0xFFFFFFFFFFFFFFFF DUP3 GT ISZERO PUSH2 0x170 JUMPI PUSH2 0x16F PUSH2 0xCB JUMP JUMPDEST JUMPDEST PUSH2 0x179 DUP3 PUSH2 0xBA JUMP JUMPDEST SWAP1 POP PUSH1 0x20 DUP2 ADD SWAP1 POP SWAP2 SWAP1 POP JUMP JUMPDEST DUP3 DUP2 DUP4 CALLDATACOPY PUSH1 0x0 DUP4 DUP4 ADD MSTORE POP POP POP JUMP JUMPDEST PUSH1 0x0 PUSH2 0x1A8 PUSH2 0x1A3 DUP5 PUSH2 0x155 JUMP JUMPDEST PUSH2 0x12B JUMP JUMPDEST SWAP1 POP DUP3 DUP2 MSTORE PUSH1 0x20 DUP2 ADD DUP5 DUP5 DUP5 ADD GT ISZERO PUSH2 0x1C4 JUMPI PUSH2 0x1C3 PUSH2 0x150 JUMP JUMPDEST JUMPDEST PUSH2 0x1CF DUP5 DUP3 DUP6 PUSH2 0x186 JUMP JUMPDEST POP SWAP4 SWAP3 POP POP POP JUMP JUMPDEST PUSH1 0x0 DUP3 PUSH1 0x1F DUP4 ADD SLT PUSH2 0x1EC JUMPI PUSH2 0x1EB PUSH2 0x14B JUMP JUMPDEST JUMPDEST DUP2 CALLDATALOAD PUSH2 0x1FC DUP5 DUP3 PUSH1 0x20 DUP7 ADD PUSH2 0x195 JUMP JUMPDEST SWAP2 POP POP SWAP3 SWAP2 POP POP JUMP JUMPDEST PUSH1 0x0 PUSH1 0x40 DUP3 DUP5 SUB SLT ISZERO PUSH2 0x21B JUMPI PUSH2 0x21A PUSH2 0xB5 JUMP JUMPDEST JUMPDEST PUSH2 0x225 PUSH1 0x40 PUSH2 0x12B JUMP JUMPDEST SWAP1 POP PUSH1 0x0 DUP3 ADD CALLDATALOAD PUSH8 0xFFFFFFFFFFFFFFFF DUP2 GT ISZERO PUSH2 0x245 JUMPI PUSH2 0x244 PUSH2 0x146 JUMP JUMPDEST JUMPDEST PUSH2 0x251 DUP5 DUP3 DUP6 ADD PUSH2 0x1D7 JUMP JUMPDEST PUSH1 0x0 DUP4 ADD MSTORE POP PUSH1 0x20 DUP3 ADD CALLDATALOAD PUSH8 0xFFFFFFFFFFFFFFFF DUP2 GT ISZERO PUSH2 0x275 JUMPI PUSH2 0x274 PUSH2 0x146 JUMP JUMPDEST JUMPDEST PUSH2 0x281 DUP5 DUP3 DUP6 ADD PUSH2 0x1D7 JUMP JUMPDEST PUSH1 0x20 DUP4 ADD MSTORE POP SWAP3 SWAP2 POP POP JUMP JUMPDEST PUSH1 0x0 PUSH1 0x20 DUP3 DUP5 SUB SLT ISZERO PUSH2 0x2A3 JUMPI PUSH2 0x2A2 PUSH2 0xAB JUMP JUMPDEST JUMPDEST PUSH1 0x0 DUP3 ADD CALLDATALOAD PUSH8 0xFFFFFFFFFFFFFFFF DUP2 GT ISZERO PUSH2 0x2C1 JUMPI PUSH2 0x2C0 PUSH2 0xB0 JUMP JUMPDEST JUMPDEST PUSH2 0x2CD DUP5 DUP3 DUP6 ADD PUSH2 0x205 JUMP JUMPDEST SWAP2 POP POP SWAP3 SWAP2 POP POP JUMP JUMPDEST PUSH1 0x0 DUP2 MLOAD SWAP1 POP SWAP2 SWAP1 POP JUMP JUMPDEST PUSH1 0x0 DUP2 SWAP1 POP SWAP3 SWAP2 POP POP JUMP JUMPDEST PUSH1 0x0 JUMPDEST DUP4 DUP2 LT ISZERO PUSH2 0x30A JUMPI DUP1 DUP3 ADD MLOAD DUP2 DUP5 ADD MSTORE PUSH1 0x20 DUP2 ADD SWAP1 POP PUSH2 0x2EF JUMP JUMPDEST PUSH1 0x0 DUP5 DUP5 ADD MSTORE POP POP POP POP JUMP JUMPDEST PUSH1 0x0 PUSH2 0x321 DUP3 PUSH2 0x2D6 JUMP JUMPDEST PUSH2 0x32B DUP2 DUP6 PUSH2 0x2E1 JUMP JUMPDEST SWAP4 POP PUSH2 0x33B DUP2 DUP6 PUSH1 0x20 DUP7 ADD PUSH2 0x2EC JUMP JUMPDEST DUP1 DUP5 ADD SWAP2 POP POP SWAP3 SWAP2 POP POP JUMP JUMPDEST PUSH1 0x0 PUSH2 0x353 DUP3 DUP5 PUSH2 0x316 JUMP JUMPDEST SWAP2 POP DUP2 SWAP1 POP SWAP3 SWAP2 POP POP JUMP JUMPDEST PUSH32 0x4E487B7100000000000000000000000000000000000000000000000000000000 PUSH1 0x0 MSTORE PUSH1 0x22 PUSH1 0x4 MSTORE PUSH1 0x24 PUSH1 0x0 REVERT JUMPDEST PUSH1 0x0 PUSH1 0x2 DUP3 DIV SWAP1 POP PUSH1 0x1 DUP3 AND DUP1 PUSH2 0x3A5 JUMPI PUSH1 0x7F DUP3 AND SWAP2 POP JUMPDEST PUSH1 0x20 DUP3 LT DUP2 SUB PUSH2 0x3B8 JUMPI PUSH2 0x3B7 PUSH2 0x35E JUMP JUMPDEST JUMPDEST POP SWAP2 SWAP1 POP JUMP JUMPDEST PUSH1 0x0 DUP2 SWAP1 POP DUP2 PUSH1 0x0 MSTORE PUSH1 0x20 PUSH1 0x0 KECCAK256 SWAP1 POP SWAP2 SWAP1 POP JUMP JUMPDEST PUSH1 0x0 PUSH1 0x20 PUSH1 0x1F DUP4 ADD DIV SWAP1 POP SWAP2 SWAP1 POP JUMP JUMPDEST PUSH1 0x0 DUP3 DUP3 SHL SWAP1 POP SWAP3 SWAP2 POP POP JUMP JUMPDEST PUSH1 0x0 PUSH1 0x8 DUP4 MUL PUSH2 0x420 PUSH32 0xFFFFFFFFFFFFFFFFFFFFFFFFFFFFFFFFFFFFFFFFFFFFFFFFFFFFFFFFFFFFFFFF DUP3 PUSH2 0x3E3 JUMP JUMPDEST PUSH2 0x42A DUP7 DUP4 PUSH2 0x3E3 JUMP JUMPDEST SWAP6 POP DUP1 NOT DUP5 AND SWAP4 POP DUP1 DUP7 AND DUP5 OR SWAP3 POP POP POP SWAP4 SWAP3 POP POP POP JUMP JUMPDEST PUSH1 0x0 DUP2 SWAP1 POP SWAP2 SWAP1 POP JUMP JUMPDEST PUSH1 0x0 DUP2 SWAP1 POP SWAP2 SWAP1 POP JUMP JUMPDEST PUSH1 0x0 PUSH2 0x471 PUSH2 0x46C PUSH2 0x467 DUP5 PUSH2 0x442 JUMP JUMPDEST PUSH2 0x44C JUMP JUMPDEST PUSH2 0x442 JUMP JUMPDEST SWAP1 POP SWAP2 SWAP1 POP JUMP JUMPDEST PUSH1 0x0 DUP2 SWAP1 POP SWAP2 SWAP1 POP JUMP JUMPDEST PUSH2 0x48B DUP4 PUSH2 0x456 JUMP JUMPDEST PUSH2 0x49F PUSH2 0x497 DUP3 PUSH2 0x478 JUMP JUMPDEST DUP5 DUP5 SLOAD PUSH2 0x3F0 JUMP JUMPDEST DUP3 SSTORE POP POP POP POP JUMP JUMPDEST PUSH1 0x0 SWAP1 JUMP JUMPDEST PUSH2 0x4B4 PUSH2 0x4A7 JUMP JUMPDEST PUSH2 0x4BF DUP2 DUP5 DUP5 PUSH2 0x482 JUMP JUMPDEST POP POP POP JUMP JUMPDEST JUMPDEST DUP2 DUP2 LT ISZERO PUSH2 0x4E3 JUMPI PUSH2 0x4D8 PUSH1 0x0 DUP3 PUSH2 0x4AC JUMP JUMPDEST PUSH1 0x1 DUP2 ADD SWAP1 POP PUSH2 0x4C5 JUMP JUMPDEST POP POP JUMP JUMPDEST PUSH1 0x1F DUP3 GT ISZERO PUSH2 0x528 JUMPI PUSH2 0x4F9 DUP2 PUSH2 0x3BE JUMP JUMPDEST PUSH2 0x502 DUP5 PUSH2 0x3D3 JUMP JUMPDEST DUP2 ADD PUSH1 0x20 DUP6 LT ISZERO PUSH2 0x511 JUMPI DUP2 SWAP1 POP JUMPDEST PUSH2 0x525 PUSH2 0x51D DUP6 PUSH2 0x3D3 JUMP JUMPDEST DUP4 ADD DUP3 PUSH2 0x4C4 JUMP JUMPDEST POP POP JUMPDEST POP POP POP JUMP JUMPDEST PUSH1 0x0 DUP3 DUP3 SHR SWAP1 POP SWAP3 SWAP2 POP POP JUMP JUMPDEST PUSH1 0x0 PUSH2 0x54B PUSH1 0x0 NOT DUP5 PUSH1 0x8 MUL PUSH2 0x52D JUMP JUMPDEST NOT DUP1 DUP4 AND SWAP2 POP POP SWAP3 SWAP2 POP POP JUMP JUMPDEST PUSH1 0x0 PUSH2 0x564 DUP4 DUP4 PUSH2 0x53A JUMP JUMPDEST SWAP2 POP DUP3 PUSH1 0x2 MUL DUP3 OR SWAP1 POP SWAP3 SWAP2 POP POP JUMP JUMPDEST PUSH2 0x57D DUP3 PUSH2 0x2D6 JUMP JUMPDEST PUSH8 0xFFFFFFFFFFFFFFFF DUP2 GT ISZERO PUSH2 0x596 JUMPI PUSH2 0x595 PUSH2 0xCB JUMP JUMPDEST JUMPDEST PUSH2 0x5A0 DUP3 SLOAD PUSH2 0x38D JUMP JUMPDEST PUSH2 0x5AB DUP3 DUP3 DUP6 PUSH2 0x4E7 JUMP JUMPDEST PUSH1 0x0 PUSH1 0x20 SWAP1 POP PUSH1 0x1F DUP4 GT PUSH1 0x1 DUP2 EQ PUSH2 0x5DE JUMPI PUSH1 0x0 DUP5 ISZERO PUSH2 0x5CC JUMPI DUP3 DUP8 ADD MLOAD SWAP1 POP JUMPDEST PUSH2 0x5D6 DUP6 DUP3 PUSH2 0x558 JUMP JUMPDEST DUP7 SSTORE POP PUSH2 0x63E JUMP JUMPDEST PUSH1 0x1F NOT DUP5 AND PUSH2 0x5EC DUP7 PUSH2 0x3BE JUMP JUMPDEST PUSH1 0x0 JUMPDEST DUP3 DUP2 LT ISZERO PUSH2 0x614 JUMPI DUP5 DUP10 ADD MLOAD DUP3 SSTORE PUSH1 0x1 DUP3 ADD SWAP2 POP PUSH1 0x20 DUP6 ADD SWAP5 POP PUSH1 0x20 DUP2 ADD SWAP1 POP PUSH2 0x5EF JUMP JUMPDEST DUP7 DUP4 LT ISZERO PUSH2 0x631 JUMPI DUP5 DUP10 ADD MLOAD PUSH2 0x62D PUSH1 0x1F DUP10 AND DUP3 PUSH2 0x53A JUMP JUMPDEST DUP4 SSTORE POP JUMPDEST PUSH1 0x1 PUSH1 0x2 DUP9 MUL ADD DUP9 SSTORE POP POP POP JUMPDEST POP POP POP POP POP POP JUMP INVALID LOG2 PUSH5 0x6970667358 0x22 SLT KECCAK256 EQ SELFDESTRUCT PUSH26 0x83D478794468F12CA9BB03B80FD400F8173CF7117646F3E9CF82 0xD2 0xAF GASLIMIT PUSH5 0x736F6C6343 STOP ADDMOD GT STOP CALLER "
				},
				"gasEstimates": {
					"creation": {
						"codeDepositCost": "332000",
						"executionCost": "368",
						"totalCost": "332368"
					},
					"external": {
						"giveVote((string,string))": "infinite"
					}
				},
				"methodIdentifiers": {
					"giveVote((string,string))": "3f06d641"
				}
			},
			"storageLayout": {
				"storage": [
					{
						"astId": 5,
						"contract": "src/VotingContract.sol:Vote",
						"label": "votes",
						"offset": 0,
						"slot": "0",
						"type": "t_mapping(t_string_memory_ptr,t_uint256)"
					},
					{
						"astId": 10,
						"contract": "src/VotingContract.sol:Vote",
						"label": "votingMachine",
						"offset": 0,
						"slot": "1",
						"type": "t_mapping(t_string_memory_ptr,t_struct(VoterDetail)15_storage)"
					}
				],
				"types": {
					"t_mapping(t_string_memory_ptr,t_struct(VoterDetail)15_storage)": {
						"encoding": "mapping",
						"key": "t_string_memory_ptr",
						"label": "mapping(string => struct Vote.VoterDetail)",
						"numberOfBytes": "32",
						"value": "t_struct(VoterDetail)15_storage"
					},
					"t_mapping(t_string_memory_ptr,t_uint256)": {
						"encoding": "mapping",
						"key": "t_string_memory_ptr",
						"label": "mapping(string => uint256)",
						"numberOfBytes": "32",
						"value": "t_uint256"
					},
					"t_string_memory_ptr": {
						"encoding": "bytes",
						"label": "string",
						"numberOfBytes": "32"
					},
					"t_string_storage": {
						"encoding": "bytes",
						"label": "string",
						"numberOfBytes": "32"
					},
					"t_struct(VoterDetail)15_storage": {
						"encoding": "inplace",
						"label": "struct Vote.VoterDetail",
						"members": [
							{
								"astId": 12,
								"contract": "src/VotingContract.sol:Vote",
								"label": "voterId",
								"offset": 0,
								"slot": "0",
								"type": "t_string_storage"
							},
							{
								"astId": 14,
								"contract": "src/VotingContract.sol:Vote",
								"label": "votedTo",
								"offset": 0,
								"slot": "1",
								"type": "t_string_storage"
							}
						],
						"numberOfBytes": "64"
					},
					"t_uint256": {
						"encoding": "inplace",
						"label": "uint256",
						"numberOfBytes": "32"
					}
				}
			},
			"userdoc": {
				"kind": "user",
				"methods": {},
				"version": 1
			}
		}
	}
}